{
  "_format": "hh-sol-artifact-1",
  "contractName": "AgentMarketplace",
  "sourceName": "contracts/AgentMarketplace.sol",
  "abi": [
    {
      "inputs": [
        {
          "internalType": "address",
          "name": "_usdc",
          "type": "address"
        }
      ],
      "stateMutability": "nonpayable",
      "type": "constructor"
    },
    {
      "inputs": [],
      "name": "ReentrancyGuardReentrantCall",
      "type": "error"
    },
    {
      "anonymous": false,
      "inputs": [
        {
          "indexed": true,
          "internalType": "uint256",
          "name": "taskId",
          "type": "uint256"
        },
        {
          "indexed": true,
          "internalType": "address",
          "name": "submitter",
          "type": "address"
        },
        {
          "indexed": false,
          "internalType": "string",
          "name": "proofURI",
          "type": "string"
        }
      ],
      "name": "ProofSubmitted",
      "type": "event"
    },
    {
      "anonymous": false,
      "inputs": [
        {
          "indexed": true,
          "internalType": "uint256",
          "name": "taskId",
          "type": "uint256"
        },
        {
          "indexed": true,
          "internalType": "address",
          "name": "assignedTo",
          "type": "address"
        }
      ],
      "name": "TaskAssigned",
      "type": "event"
    },
    {
      "anonymous": false,
      "inputs": [
        {
          "indexed": true,
          "internalType": "uint256",
          "name": "taskId",
          "type": "uint256"
        },
        {
          "indexed": true,
          "internalType": "address",
          "name": "poster",
          "type": "address"
        }
      ],
      "name": "TaskCancelled",
      "type": "event"
    },
    {
      "anonymous": false,
      "inputs": [
        {
          "indexed": true,
          "internalType": "uint256",
          "name": "taskId",
          "type": "uint256"
        },
        {
          "indexed": true,
          "internalType": "address",
          "name": "executor",
          "type": "address"
        },
        {
          "indexed": false,
          "internalType": "uint256",
          "name": "reward",
          "type": "uint256"
        },
        {
          "indexed": false,
          "internalType": "uint256",
          "name": "platformFee",
          "type": "uint256"
        }
      ],
      "name": "TaskCompleted",
      "type": "event"
    },
    {
      "anonymous": false,
      "inputs": [
        {
          "indexed": true,
          "internalType": "uint256",
          "name": "taskId",
          "type": "uint256"
        },
        {
          "indexed": true,
          "internalType": "address",
          "name": "poster",
          "type": "address"
        },
        {
          "indexed": false,
          "internalType": "string",
          "name": "description",
          "type": "string"
        },
        {
          "indexed": false,
          "internalType": "uint256",
          "name": "reward",
          "type": "uint256"
        },
        {
          "indexed": false,
          "internalType": "uint256",
          "name": "deadline",
          "type": "uint256"
        }
      ],
      "name": "TaskPosted",
      "type": "event"
    },
    {
      "inputs": [],
      "name": "FEE_DENOMINATOR",
      "outputs": [
        {
          "internalType": "uint256",
          "name": "",
          "type": "uint256"
        }
      ],
      "stateMutability": "view",
      "type": "function"
    },
    {
      "inputs": [
        {
          "internalType": "uint256",
          "name": "taskId",
          "type": "uint256"
        }
      ],
      "name": "acceptTask",
      "outputs": [],
      "stateMutability": "nonpayable",
      "type": "function"
    },
    {
      "inputs": [
        {
          "internalType": "address",
          "name": "",
          "type": "address"
        }
      ],
      "name": "agentEarnings",
      "outputs": [
        {
          "internalType": "uint256",
          "name": "",
          "type": "uint256"
        }
      ],
      "stateMutability": "view",
      "type": "function"
    },
    {
      "inputs": [
        {
          "internalType": "address",
          "name": "",
          "type": "address"
        }
      ],
      "name": "agentTasksCompleted",
      "outputs": [
        {
          "internalType": "uint256",
          "name": "",
          "type": "uint256"
        }
      ],
      "stateMutability": "view",
      "type": "function"
    },
    {
      "inputs": [
        {
          "internalType": "uint256",
          "name": "taskId",
          "type": "uint256"
        }
      ],
      "name": "cancelTask",
      "outputs": [],
      "stateMutability": "nonpayable",
      "type": "function"
    },
    {
      "inputs": [
        {
          "internalType": "uint256",
          "name": "taskId",
          "type": "uint256"
        }
      ],
      "name": "completeTask",
      "outputs": [],
      "stateMutability": "nonpayable",
      "type": "function"
    },
    {
      "inputs": [
        {
          "internalType": "address",
          "name": "agent",
          "type": "address"
        }
      ],
      "name": "getAgentStats",
      "outputs": [
        {
          "internalType": "uint256",
          "name": "totalEarnings",
          "type": "uint256"
        },
        {
          "internalType": "uint256",
          "name": "tasksCompleted",
          "type": "uint256"
        }
      ],
      "stateMutability": "view",
      "type": "function"
    },
    {
      "inputs": [
        {
          "internalType": "uint256",
          "name": "taskId",
          "type": "uint256"
        }
      ],
      "name": "getTask",
      "outputs": [
        {
          "components": [
            {
              "internalType": "uint256",
              "name": "id",
              "type": "uint256"
            },
            {
              "internalType": "address",
              "name": "poster",
              "type": "address"
            },
            {
              "internalType": "address",
              "name": "assignedTo",
              "type": "address"
            },
            {
              "internalType": "string",
              "name": "description",
              "type": "string"
            },
            {
              "internalType": "uint256",
              "name": "reward",
              "type": "uint256"
            },
            {
              "internalType": "enum AgentMarketplace.TaskStatus",
              "name": "status",
              "type": "uint8"
            },
            {
              "internalType": "string",
              "name": "proofURI",
              "type": "string"
            },
            {
              "internalType": "uint256",
              "name": "createdAt",
              "type": "uint256"
            },
            {
              "internalType": "uint256",
              "name": "deadline",
              "type": "uint256"
            }
          ],
          "internalType": "struct AgentMarketplace.Task",
          "name": "",
          "type": "tuple"
        }
      ],
      "stateMutability": "view",
      "type": "function"
    },
    {
      "inputs": [
        {
          "internalType": "uint256",
          "name": "taskId",
          "type": "uint256"
        }
      ],
      "name": "isTaskAvailable",
      "outputs": [
        {
          "internalType": "bool",
          "name": "",
          "type": "bool"
        }
      ],
      "stateMutability": "view",
      "type": "function"
    },
    {
      "inputs": [],
      "name": "owner",
      "outputs": [
        {
          "internalType": "address",
          "name": "",
          "type": "address"
        }
      ],
      "stateMutability": "view",
      "type": "function"
    },
    {
      "inputs": [],
      "name": "platformFee",
      "outputs": [
        {
          "internalType": "uint256",
          "name": "",
          "type": "uint256"
        }
      ],
      "stateMutability": "view",
      "type": "function"
    },
    {
      "inputs": [
        {
          "internalType": "string",
          "name": "description",
          "type": "string"
        },
        {
          "internalType": "uint256",
          "name": "reward",
          "type": "uint256"
        },
        {
          "internalType": "uint256",
          "name": "deadline",
          "type": "uint256"
        }
      ],
      "name": "postTask",
      "outputs": [
        {
          "internalType": "uint256",
          "name": "",
          "type": "uint256"
        }
      ],
      "stateMutability": "nonpayable",
      "type": "function"
    },
    {
      "inputs": [
        {
          "internalType": "uint256",
          "name": "taskId",
          "type": "uint256"
        },
        {
          "internalType": "string",
          "name": "proofURI",
          "type": "string"
        }
      ],
      "name": "submitProof",
      "outputs": [],
      "stateMutability": "nonpayable",
      "type": "function"
    },
    {
      "inputs": [],
      "name": "taskCounter",
      "outputs": [
        {
          "internalType": "uint256",
          "name": "",
          "type": "uint256"
        }
      ],
      "stateMutability": "view",
      "type": "function"
    },
    {
      "inputs": [
        {
          "internalType": "uint256",
          "name": "",
          "type": "uint256"
        }
      ],
      "name": "tasks",
      "outputs": [
        {
          "internalType": "uint256",
          "name": "id",
          "type": "uint256"
        },
        {
          "internalType": "address",
          "name": "poster",
          "type": "address"
        },
        {
          "internalType": "address",
          "name": "assignedTo",
          "type": "address"
        },
        {
          "internalType": "string",
          "name": "description",
          "type": "string"
        },
        {
          "internalType": "uint256",
          "name": "reward",
          "type": "uint256"
        },
        {
          "internalType": "enum AgentMarketplace.TaskStatus",
          "name": "status",
          "type": "uint8"
        },
        {
          "internalType": "string",
          "name": "proofURI",
          "type": "string"
        },
        {
          "internalType": "uint256",
          "name": "createdAt",
          "type": "uint256"
        },
        {
          "internalType": "uint256",
          "name": "deadline",
          "type": "uint256"
        }
      ],
      "stateMutability": "view",
      "type": "function"
    },
    {
      "inputs": [
        {
          "internalType": "address",
          "name": "newOwner",
          "type": "address"
        }
      ],
      "name": "transferOwnership",
      "outputs": [],
      "stateMutability": "nonpayable",
      "type": "function"
    },
    {
      "inputs": [
        {
          "internalType": "uint256",
          "name": "newFee",
          "type": "uint256"
        }
      ],
      "name": "updatePlatformFee",
      "outputs": [],
      "stateMutability": "nonpayable",
      "type": "function"
    },
    {
      "inputs": [],
      "name": "usdc",
      "outputs": [
        {
          "internalType": "contract IERC20",
          "name": "",
          "type": "address"
        }
      ],
      "stateMutability": "view",
      "type": "function"
    }
  ],
  "bytecode": "0x60a060405260fa60035534801561001557600080fd5b50604051611d1d380380611d1d833981016040819052610034916100b6565b60016000556001600160a01b0381166100935760405162461bcd60e51b815260206004820152601460248201527f496e76616c696420555344432061646472657373000000000000000000000000604482015260640160405180910390fd5b6001600160a01b0316608052600180546001600160a01b031916331790556100e6565b6000602082840312156100c857600080fd5b81516001600160a01b03811681146100df57600080fd5b9392505050565b608051611c0061011d600039600081816101ab01528181610b1701528181610e5d0152818161130501526113df0152611c006000f3fe608060405234801561001057600080fd5b50600436106101165760003560e01c80638d977672116100a2578063aa0b598811610071578063aa0b59881461028f578063b5695b38146102a2578063d73792a9146102ed578063e1e29558146102f6578063f2fde38b1461030957600080fd5b80638d977672146102215780638da5cb5b146102495780638f35087f1461025c578063a8fbc1a21461027c57600080fd5b8063322ac83d116100e9578063322ac83d146101835780633e413bee146101a657806358671730146101e557806368695f88146101ee5780637eec20a81461020e57600080fd5b80631bf6912d1461011b5780631d65e77e1461013057806326232a2e146101595780632af0051014610170575b600080fd5b61012e6101293660046115c3565b61031c565b005b61014361013e3660046115c3565b610474565b604051610150919061165a565b60405180910390f35b61016260035481565b604051908152602001610150565b61012e61017e366004611756565b61068b565b6101966101913660046115c3565b6107f5565b6040519015158152602001610150565b6101cd7f000000000000000000000000000000000000000000000000000000000000000081565b6040516001600160a01b039091168152602001610150565b61016260025481565b6101626101fc3660046117a2565b60056020526000908152604090205481565b61012e61021c3660046115c3565b6109e9565b61023461022f3660046115c3565b610bfc565b604051610150999897969594939291906117cb565b6001546101cd906001600160a01b031681565b61016261026a3660046117a2565b60066020526000908152604090205481565b61016261028a36600461183f565b610d69565b61012e61029d3660046115c3565b6110d3565b6102d86102b03660046117a2565b6001600160a01b03166000908152600560209081526040808320546006909252909120549091565b60408051928352602083019190915201610150565b61016261271081565b61012e6103043660046115c3565b61115f565b61012e6103173660046117a2565b6114e9565b600081815260046020526040812090600582015460ff16600481111561034457610344611622565b146103865760405162461bcd60e51b815260206004820152600d60248201526c2a30b9b5903737ba1037b832b760991b60448201526064015b60405180910390fd5b428160080154116103c85760405162461bcd60e51b815260206004820152600c60248201526b15185cdac8195e1c1a5c995960a21b604482015260640161037d565b6001810154336001600160a01b039091160361041f5760405162461bcd60e51b815260206004820152601660248201527543616e6e6f7420616363657074206f776e207461736b60501b604482015260640161037d565b6002810180546001600160a01b0319163390811790915560058201805460ff1916600117905560405183907f52476d55ecef5cf13caa64038f297fe6bbf865d9584a98b8722a15a6d5db128f90600090a35050565b6104c26040805161012081018252600080825260208201819052918101829052606080820152608081018290529060a082019081526020016060815260200160008152602001600081525090565b6000828152600460209081526040918290208251610120810184528154815260018201546001600160a01b039081169382019390935260028201549092169282019290925260038201805491929160608401919061051f90611890565b80601f016020809104026020016040519081016040528092919081815260200182805461054b90611890565b80156105985780601f1061056d57610100808354040283529160200191610598565b820191906000526020600020905b81548152906001019060200180831161057b57829003601f168201915b50505091835250506004828101546020830152600583015460409092019160ff16908111156105c9576105c9611622565b60048111156105da576105da611622565b81526020016006820180546105ee90611890565b80601f016020809104026020016040519081016040528092919081815260200182805461061a90611890565b80156106675780601f1061063c57610100808354040283529160200191610667565b820191906000526020600020905b81548152906001019060200180831161064a57829003601f168201915b50505050508152602001600782015481526020016008820154815250509050919050565b60008381526004602052604090206002015483906001600160a01b031633146106ec5760405162461bcd60e51b81526020600482015260136024820152724e6f742061737369676e656420746f20796f7560681b604482015260640161037d565b60008481526004602052604090206001600582015460ff16600481111561071557610715611622565b146107565760405162461bcd60e51b815260206004820152601160248201527015185cdac81b9bdd08185cdcda59db9959607a1b604482015260640161037d565b826107915760405162461bcd60e51b815260206004820152600b60248201526a22b6b83a3c90383937b7b360a91b604482015260640161037d565b600681016107a084868361192f565b5060058101805460ff19166002179055604051339086907fb2217a1ebc8d6435d328a4607aa9709269fe4cb393535a1675721d8431a54018906107e69088908890611a19565b60405180910390a35050505050565b60008181526004602090815260408083208151610120810183528154815260018201546001600160a01b039081169482019490945260028201549093169183019190915260038101805484939291606084019161085190611890565b80601f016020809104026020016040519081016040528092919081815260200182805461087d90611890565b80156108ca5780601f1061089f576101008083540402835291602001916108ca565b820191906000526020600020905b8154815290600101906020018083116108ad57829003601f168201915b50505091835250506004828101546020830152600583015460409092019160ff16908111156108fb576108fb611622565b600481111561090c5761090c611622565b815260200160068201805461092090611890565b80601f016020809104026020016040519081016040528092919081815260200182805461094c90611890565b80156109995780601f1061096e57610100808354040283529160200191610999565b820191906000526020600020905b81548152906001019060200180831161097c57829003601f168201915b505050918352505060078201546020820152600890910154604090910152905060008160a0015160048111156109d1576109d1611622565b1480156109e2575042816101000151115b9392505050565b60008181526004602052604090206001015481906001600160a01b03163314610a465760405162461bcd60e51b815260206004820152600f60248201526e2737ba103a30b9b5903837b9ba32b960891b604482015260640161037d565b610a4e611599565b600082815260046020526040812090600582015460ff166004811115610a7657610a76611622565b1480610a9a57506001600582015460ff166004811115610a9857610a98611622565b145b610ad65760405162461bcd60e51b815260206004820152600d60248201526c10d85b9b9bdd0818d85b98d95b609a1b604482015260640161037d565b60058101805460ff1916600490811790915560018201548183015460405163a9059cbb60e01b81526001600160a01b039283169381019390935260248301527f0000000000000000000000000000000000000000000000000000000000000000169063a9059cbb906044016020604051808303816000875af1158015610b60573d6000803e3d6000fd5b505050506040513d601f19601f82011682018060405250810190610b849190611a2d565b610bc05760405162461bcd60e51b815260206004820152600d60248201526c1499599d5b990819985a5b1959609a1b604482015260640161037d565b604051339084907f76be7f7b12bf790225259ca3b7ffb98f222f79af3c4c074e88e0c97af6f1402590600090a350610bf86001600055565b5050565b600460205260009081526040902080546001820154600283015460038401805493946001600160a01b03938416949390921692610c3890611890565b80601f0160208091040260200160405190810160405280929190818152602001828054610c6490611890565b8015610cb15780601f10610c8657610100808354040283529160200191610cb1565b820191906000526020600020905b815481529060010190602001808311610c9457829003601f168201915b50505050600483015460058401546006850180549495929460ff909216935090610cda90611890565b80601f0160208091040260200160405190810160405280929190818152602001828054610d0690611890565b8015610d535780601f10610d2857610100808354040283529160200191610d53565b820191906000526020600020905b815481529060010190602001808311610d3657829003601f168201915b5050505050908060070154908060080154905089565b6000610d73611599565b83610db45760405162461bcd60e51b815260206004820152601160248201527022b6b83a3c903232b9b1b934b83a34b7b760791b604482015260640161037d565b60008311610df95760405162461bcd60e51b81526020600482015260126024820152710526577617264206d757374206265203e20360741b604482015260640161037d565b428211610e3b5760405162461bcd60e51b815260206004820152601060248201526f496e76616c696420646561646c696e6560801b604482015260640161037d565b6040516323b872dd60e01b8152336004820152306024820152604481018490527f00000000000000000000000000000000000000000000000000000000000000006001600160a01b0316906323b872dd906064016020604051808303816000875af1158015610eae573d6000803e3d6000fd5b505050506040513d601f19601f82011682018060405250810190610ed29190611a2d565b610f155760405162461bcd60e51b81526020600482015260146024820152731554d110c81d1c985b9cd9995c8819985a5b195960621b604482015260640161037d565b60028054906000610f2583611a65565b90915550506002546040805161012081018252828152336020808301919091526000828401528251601f89018290048202810182019093528783529091606083019189908990819084018382808284376000920182905250938552505050602082018790526040909101908152604080516020808201835260008083528185019290925242838501526060938401889052858252600481529082902084518155908401516001820180546001600160a01b03199081166001600160a01b0393841617909155928501516002830180549094169116179091559082015160038201906110109082611a7e565b506080820151816004015560a08201518160050160006101000a81548160ff0219169083600481111561104557611045611622565b021790555060c0820151600682019061105e9082611a7e565b5060e082015181600701556101008201518160080155905050336001600160a01b0316817f29f19e94fdadb6b2187f07cd1ff59ea2d759fe0ae53a0fb6ab2c9ab9325881b5888888886040516110b79493929190611b3e565b60405180910390a390506110cb6001600055565b949350505050565b6001546001600160a01b031633146111195760405162461bcd60e51b81526020600482015260096024820152682737ba1037bbb732b960b91b604482015260640161037d565b6103e881111561115a5760405162461bcd60e51b815260206004820152600c60248201526b08ccaca40e8dede40d0d2ced60a31b604482015260640161037d565b600355565b60008181526004602052604090206001015481906001600160a01b031633146111bc5760405162461bcd60e51b815260206004820152600f60248201526e2737ba103a30b9b5903837b9ba32b960891b604482015260640161037d565b6111c4611599565b60008281526004602052604090206002600582015460ff1660048111156111ed576111ed611622565b146112305760405162461bcd60e51b8152602060048201526013602482015272141c9bdbd9881b9bdd081cdd589b5a5d1d1959606a1b604482015260640161037d565b60058101805460ff19166003908117909155546004820154600091612710916112599190611b65565b6112639190611b82565b905060008183600401546112779190611ba4565b60028401546001600160a01b03166000908152600560205260408120805492935083929091906112a8908490611bb7565b909155505060028301546001600160a01b031660009081526006602052604081208054916112d583611a65565b9091555050600283015460405163a9059cbb60e01b81526001600160a01b039182166004820152602481018390527f00000000000000000000000000000000000000000000000000000000000000009091169063a9059cbb906044016020604051808303816000875af1158015611350573d6000803e3d6000fd5b505050506040513d601f19601f820116820180604052508101906113749190611a2d565b6113b05760405162461bcd60e51b815260206004820152600d60248201526c14185e5bdd5d0819985a5b1959609a1b604482015260640161037d565b81156114905760015460405163a9059cbb60e01b81526001600160a01b039182166004820152602481018490527f00000000000000000000000000000000000000000000000000000000000000009091169063a9059cbb906044016020604051808303816000875af115801561142a573d6000803e3d6000fd5b505050506040513d601f19601f8201168201806040525081019061144e9190611a2d565b6114905760405162461bcd60e51b8152602060048201526013602482015272119959481d1c985b9cd9995c8819985a5b1959606a1b604482015260640161037d565b600283015460408051838152602081018590526001600160a01b039092169187917fefef8593ec020b84769ddb5cf4469accbbd22d882a354bee97694405126ca694910160405180910390a3505050610bf86001600055565b6001546001600160a01b0316331461152f5760405162461bcd60e51b81526020600482015260096024820152682737ba1037bbb732b960b91b604482015260640161037d565b6001600160a01b0381166115775760405162461bcd60e51b815260206004820152600f60248201526e496e76616c6964206164647265737360881b604482015260640161037d565b600180546001600160a01b0319166001600160a01b0392909216919091179055565b6002600054036115bc57604051633ee5aeb560e01b815260040160405180910390fd5b6002600055565b6000602082840312156115d557600080fd5b5035919050565b6000815180845260005b81811015611602576020818501810151868301820152016115e6565b506000602082860101526020601f19601f83011685010191505092915050565b634e487b7160e01b600052602160045260246000fd5b6005811061165657634e487b7160e01b600052602160045260246000fd5b9052565b60208152815160208201526000602083015161168160408401826001600160a01b03169052565b5060408301516001600160a01b03811660608401525060608301516101208060808501526116b36101408501836115dc565b9150608085015160a085015260a08501516116d160c0860182611638565b5060c0850151848303601f190160e08601526116ed83826115dc565b60e087015161010087810191909152909601519190940152509192915050565b60008083601f84011261171f57600080fd5b50813567ffffffffffffffff81111561173757600080fd5b60208301915083602082850101111561174f57600080fd5b9250929050565b60008060006040848603121561176b57600080fd5b83359250602084013567ffffffffffffffff81111561178957600080fd5b6117958682870161170d565b9497909650939450505050565b6000602082840312156117b457600080fd5b81356001600160a01b03811681146109e257600080fd5b8981526001600160a01b03898116602083015288166040820152610120606082018190526000906117fe8382018a6115dc565b905087608084015261181360a0840188611638565b82810360c084015261182581876115dc565b60e084019590955250506101000152979650505050505050565b6000806000806060858703121561185557600080fd5b843567ffffffffffffffff81111561186c57600080fd5b6118788782880161170d565b90989097506020870135966040013595509350505050565b600181811c908216806118a457607f821691505b6020821081036118c457634e487b7160e01b600052602260045260246000fd5b50919050565b634e487b7160e01b600052604160045260246000fd5b601f82111561192a57600081815260208120601f850160051c810160208610156119075750805b601f850160051c820191505b8181101561192657828155600101611913565b5050505b505050565b67ffffffffffffffff831115611947576119476118ca565b61195b836119558354611890565b836118e0565b6000601f84116001811461198f57600085156119775750838201355b600019600387901b1c1916600186901b1783556119e9565b600083815260209020601f19861690835b828110156119c057868501358255602094850194600190920191016119a0565b50868210156119dd5760001960f88860031b161c19848701351681555b505060018560011b0183555b5050505050565b81835281816020850137506000828201602090810191909152601f909101601f19169091010190565b6020815260006110cb6020830184866119f0565b600060208284031215611a3f57600080fd5b815180151581146109e257600080fd5b634e487b7160e01b600052601160045260246000fd5b600060018201611a7757611a77611a4f565b5060010190565b815167ffffffffffffffff811115611a9857611a986118ca565b611aac81611aa68454611890565b846118e0565b602080601f831160018114611ae15760008415611ac95750858301515b600019600386901b1c1916600185901b178555611926565b600085815260208120601f198616915b82811015611b1057888601518255948401946001909101908401611af1565b5085821015611b2e5787850151600019600388901b60f8161c191681555b5050505050600190811b01905550565b606081526000611b526060830186886119f0565b6020830194909452506040015292915050565b8082028115828204841417611b7c57611b7c611a4f565b92915050565b600082611b9f57634e487b7160e01b600052601260045260246000fd5b500490565b81810381811115611b7c57611b7c611a4f565b80820180821115611b7c57611b7c611a4f56fea26469706673582212205068cd6335c979622927c339d8bc0210851999a653b2e2b210a52b63d9c41b7d64736f6c63430008140033",
  "linkReferences": {},
  "deployedLinkReferences": {}
}